:020000040000FA
:10000000A0030020C100000001050000250400003D
:10001000FFFFFFFFFFFFFFFFFFFFFFFFFFFFFFFFF0
:10002000FFFFFFFFFFFFFFFFFFFFFFFFAD07000028
:10003000FFFFFFFFFFFFFFFF8307000075080000C1
:1000400003010000030100000301000003010000A0
:100050000301000003010000030100000301000090
:1000600003010000FFFFFFFF030100000301000088
:100070007D0300000301000003010000FFFFFFFFFC
:10008000FFFFFFFF03010000030100000301000068
:10009000030100000301000003010000B90A000091
:1000A000150B000003010000030100000301000024
:1000B0000301000003010000030100000301000030
:1000C0001048804710488047104800471048016991
:1000D000002910D1416900290DD1816900290AD177
:1000E000C169002907D1BFF34F8F0A490A48C86088
:1000F000BFF34F8FFEE77047FEE7FEE7FEE7FEE740
:10010000FEE7FEE7CD000000790800001D010000B9
:100110000003084000ED00E00400FA0503488546AE
:1001200000F036F8004800479D0E0000A0030020B4
:1001300030B50B46014600202022012409E00D467F
:10014000D5409D4205D31D469540491B2546954007
:1001500040191546521E002DF1DC30BD03460B43FD
:100160009B0703D009E008C9121F08C0042AFAD26D
:1001700003E00B780370401C491C521EF9D27047F3
:10018000421C0178401C0029FBD1801A70470000F6
:10019000064C0125064E05E0E36807CC2B430C3CDA
:1001A00098471034B442F7D3FFF7BCFF9820000003
:1001B000B8200000F0B596460A461349C00046181C
:1001C00000230025FF2098402C46104216D0002026
:1001D000012199408C461146C1406746394206D0FC
:1001E00087000F21B9400D437146B9400C43401CB4
:1001F0000828F0D33068A843204330600833361D08
:10020000082BDEDDF0BD00002020024070B5184D47
:100210000446686B4607760F00F02EF815492060FB
:10022000330000F0E3FD081405070714140E111441
:10023000606000E06160296A6068052909D34009AF
:1002400008E00120C003F3E77D200002F0E7002072
:10025000EEE7C840A060A96A4903490F072902D008
:10026000C840E06070BD0321FFF762FFF9E70000BE
:100270000080084000127A000C490868C869C20F63
:100280004868400AC007C00F0ED00948002A0BD1A9
:100290008869C00D0007000F00D110208969044A49
:1002A0004902890F5043C840704700000080084051
:1002B00000127A001FB541090A4A89008A180021F4
:1002C0002E2800D10221C006C00E126803238340ED
:1002D0001A40C24054186846FFF798FF029804B0CD
:1002E000E04010BD38800840F0B5084F7C6AFD6AD8
:1002F0003E6B84438D439643002B02D004430D4351
:1003000016437C62FD623E63F0BD00000080084041
:100310008162704710B5034600200D4C01460A4625
:10032000A34201D198150EE00A4CA34201D1581501
:1003300009E0094CA34201D1181504E0074CA3427F
:1003400001D10120C002012300F01CFA10BD000001
:1003500000000B4000200B4000400B4000600B40B1
:10036000002A026801D00A4300E08A430260704715
:10037000002A01D0416270478162704770B5FF2545
:100380000A4C01352946204600F0F9FA01280CD123
:10039000074AE9011088084310802946204600F0EA
:1003A000DFFA0021204600F0E0FA70BD00E00640D0
:1003B000040000207FB50024FF25013521460123DC
:1003C0002A460846FFF790FF12496846418063219C
:1003D000018004710294104C85816946204600F02A
:1003E000E5FA2946204600F0BBFA012229462046BC
:1003F00000F0D1FA09492801086009480168802203
:10040000090A0902114301600121204600F0ADFAFA
:100410007FBD00001F1C000000E0064000E100E07E
:100420000CE400E0024801680029FCD0704700009D
:100430000000002070B501220B4D14032146284610
:10044000FFF796FF0122D60231462846FFF790FFBC
:10045000002231462846FFF78BFF0022214628461E
:10046000FFF786FF70BD000000400B4070B5094CDF
:10047000012211032046FFF77BFF0125ED02002238
:1004800029462046FFF774FF012229462046FFF740
:100490006FFF70BD00400B4070B50122054D140385
:1004A00021462846FFF764FF002221462846FFF731
:1004B0005FFF70BD00400B4070B50021012080043B
:1004C00001230A46FFF710FF0C4C2046FFF722FFDE
:1004D0000122950329462046FFF742FF0122D60359
:1004E00031462046FFF73CFF29462046FFF710FF24
:1004F00031462046FFF70CFF70BD000000400B4066
:10050000704770B50646002528460021B03000F03F
:100510002DF90021084600F029F90021102000F0F3
:1005200025F900240121304600F020F9641CE4B2D2
:10053000802CF7D36D1CEDB2082DE5D370BD000003
:1005400010B500210120800401230A46FFF7CCFEEC
:1005500003210122C9023948FFF702FFC82000F039
:1005600061FC0021AE2000F001F90021084600F0F6
:10057000FDF80021102000F0F9F80021402000F0E3
:10058000F5F80021B02000F0F1F80021812000F002
:10059000EDF80021FF2000F0E9F80021A12000F093
:1005A000E5F80021A62000F0E1F80021A82000F0E5
:1005B000DDF800213F2000F0D9F80021C82000F02C
:1005C000D5F80021D32000F0D1F80021084600F032
:1005D000CDF80021D52000F0C9F80021802000F0DE
:1005E000C5F80021D82000F0C1F80021052000F056
:1005F000BDF80021D92000F0B9F80021F12000F069
:10060000B5F80021DA2000F0B1F80021122000F046
:10061000ADF80021DB2000F0A9F80021302000F027
:10062000A5F800218D2000F0A1F80021142000F091
:100630009DF80021AF2000F099F810BD00400B405C
:1006400010B50A46044610460021B03000F08EF87E
:1006500020090021103000F089F82007000F002148
:1006600000F084F810BD0000F8B515460E460746A8
:10067000FFF7E6FF0E490024A8014518285D012177
:1006800000F074F8641CE4B2102CF7D3761CF1B2BD
:100690003846FFF7D5FF00242819203000780121C3
:1006A00000F064F8641CE4B2102CF5D3F8BD00002F
:1006B00058170000FFB581B0203A019800240F467A
:1006C000D5B27F2803D900208F1CFFB20190102BD8
:1006D00039460FD0FFF7B4FF0620454314482D18C4
:1006E000285D012100F042F8641CE4B2062CF7D327
:1006F00005B0F0BDFFF7A4FF0E4E2D012819305CA8
:10070000012100F033F8641CE4B2082CF6D37F1CFE
:10071000F9B20198FFF794FF002428198019007A94
:10072000012100F023F8641CE4B2082CF5D3DFE7C4
:10073000400F000068110000FFB581B017460E465B
:10074000044600250DE031462046049BFFF7B2FF2A
:100750000834E4B2782C02D90024B61CF6B26D1C21
:10076000EDB27A5D002AEED105B0F0BD10B50029DA
:1007700003D0C0B200F024FB10BDC0B200F00AFBF1
:1007800010BD7047F0B5084F7C68BD68FE688443B3
:100790008D439643002B02D004430D4316437C60E7
:1007A000BD60FE60F0BD0000008108407047F3B5F9
:1007B00000248DB00F4625460846FFF7E1FCC6B27F
:1007C000FD206946087000204870F01C88700120E8
:1007D000C8700D980001401C08716846415D6D1C91
:1007E0004C40052DFAD3002102E07A5C5440491CAC
:1007F000B142FAD3054632463946401DFFF7AEFCFA
:10080000A81944710120B21D6946800700F07AFAE8
:100810000FB0F0BD042204490428086902D09043B7
:10082000086170471043FBE700E000E0074900283B
:1008300006D00128086906D04008400008617047CA
:1008400000208861704701221043F7E700E000E0D4
:10085000044902220028086901D0104300E09043B7
:100860000861704700E000E00149486170470000FE
:1008700000E000E070470000F0B534491020C86087
:100880003349012008603348016B40242143016350
:1008900031498A68272AFCD1416A03229202914396
:1008A000416241680122D202114341608168C90856
:1008B000C907FBD04168C908C900C91C4160416B28
:1008C0004907490F0329FAD1244B1968C908C900FF
:1008D000491C19600025056241685E15B1434160FD
:1008E00001689F153943016041681A151143416041
:1008F00081688908C907FBD0016BA14301630168C6
:10090000B9430160032109068161416831434160B7
:1009100081684908C907FBD01968C908C900891C42
:10092000196005624168C908C900491C4160416BF2
:100930004907490F0129FAD11868102108431860A6
:100940001868090208431860F0BD000000810840E3
:10095000008308400080084000A1064000020840D3
:10096000C943C167BFF34F8F70470029016902D0A7
:100970000122114301E04908490001617047C26F3B
:10098000406F0A400840002A03D0002801D001200F
:10099000704700207047002A426F01D00A4300E0F0
:1009A0008A434267704780300160704710B5024645
:1009B0000B88803293604B885360036803242404BF
:1009C000A3430360036801242406A3430360036870
:1009D0008C6823430360044B984201D10B79D360A8
:1009E0008989816710BD000000C00240F0B587B062
:1009F000E1256D02FF2601366846009586800024B9
:100A0000C48004811A4F44816946384600F0BAF820
:100A100068460395068244828482C482154C03A9E9
:100A2000204600F0AFF801221146384600F0ECF8FD
:100A300001221146204600F0E7F801220021384645
:100A400000F0EFF801221146384600F0EAF80122E2
:100A50000021204600F0E5F801221146204600F072
:100A6000E0F80548710401604900016007B0F0BD7D
:100A7000001000400010044000E100E013239B023E
:100A800010B519430123FFF72FFC06220421012092
:100A9000FFF790FB062208210120FFF78BFB0622BF
:100AA00010210120FFF786FB062220210120FFF7FD
:100AB00081FBFFF79BFF10BD70B520214C0620463F
:100AC00000F05AF800281AD0204600F0A5F80E4D84
:100AD000C4B22888010412D4C82811D20B4E0021B8
:100AE0003046FFF760FF2888002803D101213046F7
:100AF000FFF73BFF064928880C54401C288070BD36
:100B00000121C9030843F9E70400002000E0064082
:100B10000C00002070B5154C2021204600F02CF868
:100B200000280ED0204600F077F8114AC1B2508854
:100B3000030406D444040023002C06DA0A2901D059
:100B4000538070BD0121C9030DE00D2909D0840433
:100B5000A40C084D401C80B229555080C728EFD8FE
:100B600070BD012189030843508070BD000004401E
:100B700004000020D40000200069084000D00120BB
:100B80007047000070B504460D46C88889886268C1
:100B900008432989184B1A401143084369890843BF
:100BA000606001208007844206D11820FFF782FB95
:100BB0002968FFF7BDFA60621048844206D11A2006
:100BC000FFF778FB2968FFF7B3FA60620C488442AC
:100BD00006D11C20FFF76EFB2968FFF7A9FA6062B7
:100BE0000848844206D11E20FFF764FB2968FFF7FE
:100BF0009FFA606270BD0000FCE0FFFF000004404F
:100C00000010004000100440002AC26801D00A43CE
:100C100000E08A43C2607047006880B2704701609C
:100C2000704710238B404168002A01D0194300E02F
:100C3000994341607047000070B586B04B20C001F9
:100C4000FF2501350090684685800024C48004811A
:100C50004481AE0569463046FFF794FFE12040022B
:100C600003906846058244828482C482144C03A99E
:100C70002046FFF787FF012211463046FFF7C4FFE9
:100C8000012211462046FFF7BFFF01220021304616
:100C9000FFF7C7FF012211463046FFF7C2FF0122CE
:100CA00000212046FFF7BDFF012211462046FFF735
:100CB000B8FF0448610101604900016006B070BDE1
:100CC0000000044000E100E043231B0210B519437B
:100CD0000123FFF709FB062204210020FFF76AFA2F
:100CE000062208210020FFF765FA062210210020C5
:100CF000FFF760FA062220210020FFF75BFAFFF7DA
:100D00009BFF10BDF8B516460D460746002406E0C9
:100D1000297838466D1C00F005F8641CE4B2B44232
:100D2000F6D3F8BD10B50124A4072046FFF777FFDE
:100D300080212046FFF720FF0028F9D010BD0000D9
:100D4000F8B50126124F04463603002231463846D4
:100D5000FFF70EFB0025E009C001802816D0002215
:100D60000121C9023846FFF703FB6006040E012289
:100D700031463846FFF7FCFA002231463846FFF785
:100D8000F7FA6D1CEDB2082DE5D3F8BD0122E7E7B7
:100D900000400B4010B50446FFF74CFB7820FFF7EE
:100DA000CFFFFFF779FB0020FFF7CAFFFFF774FBC7
:100DB0002046FFF7C5FFFFF76FFBFFF757FB10BD9E
:100DC00010B50446FFF736FB7820FFF7B9FFFFF7B1
:100DD00063FB4020FFF7B4FFFFF75EFB2046FFF701
:100DE000AFFFFFF759FBFFF741FB10BD30B474466E
:100DF000641E2578641CAB4200D21D46635D5B0017
:100E0000E31830BC184702E008C8121F08C1002AC6
:100E1000FAD170477047002001E001C1121F002A7B
:100E2000FBD1704770B57D250446ED0002E02846F1
:100E300000F006F82046641EA4B20028F7D170BD69
:100E400010B504460420C043FFF7E4FC11481049E4
:100E50000068FFF76DF9FFF707FD0020FFF7F8FCCA
:100E60000020FFF7E3FC0120FFF7E0FC00210A4A25
:100E700003E01369D803FCD5491CA142F9D3012032
:100E8000C043FFF7D3FC0020FFF7D0FC10BD0000EB
:100E900000127A000800002000E000E0FFF70CFBE1
:100EA000FFF7ECFDFFF710FFFFF74AFBFFF782FAB1
:100EB0000020FFF726FB082313A201211420FFF7CF
:100EC0003BFC032313A219461420FFF735FC0B2229
:100ED00003215020FFF7C8FB032310A20521142093
:100EE000FFF72AFC0D2205215020FFF7BDFB0D4C1A
:100EF0000DA10220FFF75BFC2046FFF793FF204681
:100F0000FFF790FFF4E7000068743332206F6C65E0
:100F100064000000435F543A00000000435F483A19
:100F200000000000DC0500005B7631305D5B6D3158
:100F30005D5B74345DD5E6CBFBC2E8C5A3B1C600EA
:100F40000000000000000000002F0000000007006B
:100F5000070000147F147F1400242A7F2A120062E5
:100F60006408132300364955225000000503000091
:100F700000001C224100000041221C000014083E19
:100F800008140008083E0808000000A060000008DF
:100F90000808080800006060000000201008040233
:100FA000003E5149453E0000427F400000426151F1
:100FB0004946002141454B31001814127F1000278B
:100FC00045454539003C4A4949300001710905034E
:100FD00000364949493600064949291E000036367F
:100FE00000000000563600000008142241000014E2
:100FF00014141414000041221408000201510906BF
:1010000000324959513E007C1211127C007F49493F
:101010004936003E41414122007F4141221C007F70
:1010200049494941007F09090901003E4149497A7E
:10103000007F0808087F0000417F410000204041F8
:101040003F01007F08142241007F40404040007F64
:10105000020C027F007F0408107F003E4141413EA8
:10106000007F09090906003E4151215E007F0919F0
:1010700029460046494949310001017F0101003FED
:101080004040403F001F2040201F003F4038403F6D
:1010900000631408146300070870080700615149D1
:1010A000454300007F41410000552A552A55000064
:1010B00041417F00000402010204004040404040E2
:1010C000000001020400002054545478007F48447A
:1010D000443800384444442000384444487F0038B1
:1010E0005454541800087E0901020018A4A4A47CDA
:1010F000007F080404780000447D400000408084A4
:101100007D00007F102844000000417F4000007CEB
:1011100004180478007C08040478003844444438F7
:1011200000FC242424180018242418FC007C080443
:10113000040800485454542000043F444020003C1C
:101140004040207C001C2040201C003C4030403CA3
:10115000004428102844001CA0A0A07C0044645433
:101160004C44141414141414000000000000000077
:101170000000000000000000000000F80000000077
:10118000000000333000000000100C06100C0600B8
:10119000000000000000000040C07840C07840001F
:1011A000043F04043F040400007088FC0830000081
:1011B000001820FF211E0000F008F000E0180000D9
:1011C00000211C031E211E0000F008887000000092
:1011D0001E2123241927211010160E0000000000E4
:1011E0000000000000000000000000E01804020001
:1011F000000000071820400000020418E000000072
:101200000040201807000000404080F0804040006F
:101210000202010F01020200000000F000000000C5
:101220000101011F01010100000000000000000099
:1012300080B070000000000000000000000000000E
:101240000001010101010101000000000000000097
:101250000030300000000000000000008060180432
:10126000006018060100000000E010080810E0000F
:10127000000F102020100F00001010F800000000D8
:101280000020203F2020000000700808088870001F
:10129000003028242221300000300888884830009F
:1012A0000018202020110E000000C02010F80000BF
:1012B00000070424243F240000F808888808080058
:1012C0000019212020110E0000E01088881800006D
:1012D000000F112020110E0000380808C83808003F
:1012E0000000003F000000000070880808887000BF
:1012F000001C222121221C0000E010080810E00040
:101300000000312222110F00000000C0C0000000C8
:1013100000000030300000000000008000000000ED
:1013200000008060000000000000804020100800E5
:1013300000010204081020004040404040404000AE
:101340000404040404040400000810204080000089
:101350000020100804020100007048080808F0008E
:101360000000003036010000C030C828E810E0005E
:101370000718272423140B000000C038E0000000E9
:10138000203C23020227382008F888888870000053
:10139000203F202020110E00C03008080808380027
:1013A000071820202010080008F808080810E0009E
:1013B000203F202020100F0008F88888E80810003F
:1013C000203F20202320180008F88888E808100013
:1013D000203F200003000000C0300808083800004B
:1013E00007182020221E020008F808000008F8084C
:1013F000203F210101213F20000808F808080000D3
:101400000020203F2020000000000808F808080005
:10141000C08080807F00000008F888C0281808007D
:10142000203F20012638200008F8080000000000B6
:10143000203F20202020300008F8F800F8F80800AD
:10144000203F003F003F200008F830C00008F808A7
:10145000203F200007183F00E01008080810E000B7
:101460000F10202020100F0008F808080808F000CE
:10147000203F210101010000E01008080810E000F1
:101480000F18242438504F0008F888888888700086
:10149000203F2000030C3020007088080808380026
:1014A0000038202121221C00180808F8080818001C
:1014B0000000203F2000000008F808000008F8089D
:1014C000001F202020201F000878880000C838084E
:1014D000000007380E010000F80800F80008F800C6
:1014E000033C0700073C0300081868808068180860
:1014F00020302C03032C30200838C800C8380800DE
:101500000000203F2000000010080808C83808002C
:101510002038262120201800000000FE02020200D0
:101520000000007F40404000000C30C00000000080
:10153000000000010638C00000020202FE000000A8
:10154000004040407F00000000000402020204004E
:10155000000000000000000000000000000000008B
:101560008080808080808080000202040000000073
:10157000000000000000000000008080808000006B
:101580000019242222223F2008F800808000000059
:10159000003F112020110E0000000080808000001C
:1015A000000E112020201100000000808088F8002B
:1015B000000E112020103F2000008080808000005D
:1015C000001F222222221300008080F088888818C1
:1015D0000020203F202000000000808080808000CC
:1015E000006B94949493600008F800808080000061
:1015F000203F210000203F2000809898000000003C
:101600000020203F2020000000000080989800006B
:1016100000C08080807F000008F80000808080008B
:10162000203F24022D302000000808F800000000B0
:101630000020203F2020000080808080808080006B
:10164000203F20003F20003F8080008080800000FD
:10165000203F210000203F2000008080808000008B
:10166000001F202020201F008080008080000000BC
:1016700080FFA12020110E000000008080808000EB
:10168000000E112020A0FF808080800080808000DC
:1016900020203F2120000100000080808080800009
:1016A0000033242424241900008080E0808000007E
:1016B0000000001F202000008080000000808000CB
:1016C000001F202020103F2080808000008080802C
:1016D00000010E30080601008080008000808080BC
:1016E0000F300C030C300F000080800080808000E1
:1016F0000020312E0E31200080808000008080800C
:1017000080818E70180601000080808080808000BB
:101710000021302C2221300000000000807C0202D9
:1017200000000000003F404000000000FF000000FB
:1017300000000000FF0000000002027C80000000AA
:101740000040403F000000000006010102020404C6
:101750000000000000000000101010FF109008882A
:101760008888FF88888808000000000000000000CA
:1017700000000000000000000444827F01808040DF
:10178000432C10284681800000000000000000006B
:10179000000000000000000040445465C66454444A
:1017A00000FC4444C442400000000000000000006F
:1017B000000000000000000020124A827F020A920E
:1017C000601F0000FF00000000000000000000009B
:1017D00000000000000000000000F888888888FFF2
:1017E00088888888F80000000000000000000000E1
:1017F000000000000000000000001F080808087F2B
:10180000888888889F80F0000000000000000000A9
:10181000000000000000000080828282828282E25A
:10182000A2928A86828080000000000000000000F2
:101830000000000000000000000000000040807F69
:101840000000000000000000000000000000000098
:1018500000000000000000002424A4FEA3220022B7
:10186000CC0000FF000000000000000000000000AD
:101870000000000000000000080601FF0001040451
:10188000040404FF02020200000000000000000047
:101890000000000000000000101010FF10900888E9
:1018A0008888FF8888880800000000000000000089
:1018B00000000000000000000444827F018080409E
:1018C000432C10284681800000000000000000002A
:1018D000000000000000000000000010206000FC7C
:1018E0000440A0980000000000000000000000007C
:1018F00000000000000000000000000141494929EB
:101900002525243F01000000000000000000000029
:101910000000000000000000002020A0A0A4A820DB
:10192000209816F0101010000000000000000000C9
:1019300000000000000000000000001F0A2A7F00D5
:10194000000F206F300000000000000000000000C9
:10195000000000000000000000004008180008F827
:10196000A868687418000000000000000000000073
:1019700000000000000000000000300E22203E2287
:101980001E122E221F1200000000000000000000A6
:10199000000000000000000000000000F090B0F027
:1019A00056D8284800000000000000000000000099
:1019B00000000000000000000020100C4340402DFB
:1019C000131E2260404040000000000000000000A4
:1019D0000000000000000000000000808000000007
:1019E00000000000000000000000000000000000F7
:1019F0000000000000000000000000313100000085
:101A000000000000000000000000000000000000D6
:101A10000000000000000000000C120C00C070105C
:101A20000808080810300000000000000000000056
:101A3000000000000000000000000000000F18304F
:101A400020202020301C00000000000000000000CA
:101A50000000000000000000000040080808F8A88E
:101A6000A858487C080000000000000000000000AA
:101A700000000000000000000000380620202C3D7F
:101A800023213F242320200000000000000000004C
:101A9000000000000000000000F0F80888F8F000E6
:101AA000804020100800000000000000000000003E
:101AB000000000000000000000000021180C0201DE
:101AC000001E3F21211E1E0000000000000000003B
:101AD0000000000000000000000000000000000006
:101AE00000000000000000000000000000000000F6
:101AF00000000000000000000000000000000000E6
:101B000000000000000000000000000000000000D5
:101B100000000000000000000000000000000000C5
:101B200000000000000000000000000000000000B5
:101B30000000000000000000000010303010000025
:101B40000000000000000000000000000000000095
:101B50000000000000000000000080C0E0F0301035
:101B6000103070E0C0800000F0FEFFFF07000000B2
:101B700000000003FFFFFFF83FFFFFFFC000000071
:101B800000000080FFFFFF3F000003070F1E18103A
:101B900010181C0F0703010000C0C0C0C0E0E0F037
:101BA000F0F8F80000000000000000000000FFFF57
:101BB000FFFFFF0000000000000000000000FFFF2A
:101BC000FFFFFF0000000000000808080C0C0F0FCA
:101BD0000F0F0F0C0C08080000C0E0F030180808C8
:101BE00008081838F0F0E08000070707060000003A
:101BF0000000C0F0FF7F3F0F00000080C0F0781CA5
:101C00000E0703010000C0C0000E0F0F0D0C0C0CDE
:101C10000C0C0C0C0C0F0F0300C0E0F0B0180808FF
:101C2000081838F0F0E0C000000303030300404050
:101C300040E0F0BF9F1F070000C0E0E0E0000000B0
:101C400000000003FFFFFEF800010307060C080870
:101C5000080C0C0707030100000000000000000052
:101C6000C0E0F8FCFC000000000000C0E0381E07E7
:101C70000300FFFFFF000000080E0F0B0808080814
:101C80000808FFFFFF08080800000000000000042B
:101C90000404070707040404000000F0F0303030AB
:101CA00030303030303030300000FCFFC340602036
:101CB000202060E0C0C080000080C1C1C1000000E1
:101CC00000000001FFFFFFFE0003070F09181010BE
:101CD0001018181E0F070300000000C0E0E03030AD
:101CE000101010F0F0E0C000F0FEFFFF83C0602095
:101CF000202060E1C1C181003FFFFFFF83000000A1
:101D000000000001FFFFFFFE0001070F0F1C18106D
:101D10001010181E0F07030080F0F07030303030C4
:101D2000303030B0F070300003030000000000C01D
:101D3000F07C1F07010000000000000080F8FEFF9B
:101D40000300000000000000000000001F1F1F1F14
:101D500000000000000000000000C0E0E070301053
:101D600010103070E0E0C000000F3F7FFFF8F0E09F
:101D7000C080C0E07F7F3F0FF0FCFEFE0F0301013B
:101D800003070F1FFFFEFCF00103070F0E181010D2
:101D90001010181C0F0F07010080C0E0F030101069
:101DA000103030E0E0C00000FEFFFFFF0000000048
:101DB00000000081FFFFFFFC000307070F0C08086D
:101DC000080C06E3FFFF7F0F00070F1F1F10101006
:101DD000181C0F070301000000080889EA18880092
:101DE0000404FC040404FC0000020100FF0186401E
:101DF0002018074080403F000080808080808080E5
:101E000080808080808080800000000000000000D2
:101E1000000000000000000000000008080808089A
:101E20000808080808080000001010101010101012
:101E3000101010101010101000000484848484848A
:101E40008484848484840400002020202020202096
:101E500020202020202020200000FC040404FC047A
:101E60000404FC040404FC0000007F282423202038
:101E70002020212222227F00000002424242C27E14
:101E800042424242C2020200004040404078474085
:101E9000404040407F404040002020202020202122
:101EA000222C20202020202000004020100C0300A5
:101EB000000001020418600000808080808040FFE4
:101EC0004040402020202000000000000000003F93
:101ED0004040404040407800000000000000FC000E
:101EE00000007E80000000000000806018070000F5
:101EF000000000030C304080000010101010FF1094
:101F0000101010F0000000000080402018070000B2
:101F10000000003F4040407800404040404040408A
:101F2000FF404040404040400000000000000000F2
:101F3000FF00000000000000000020100894A744EB
:101F40004444A4940C000000000202010120242457
:101F500044488810010102020000FE2222FE40488F
:101F6000487F4848487F484800807F0282FF000041
:101F7000FF4949494949FF0000000202C20202022A
:101F8000FE82828282820200004040407F404040C8
:101F90007F40404040404040000000000000808002
:101FA00080000000000000000000000000030707A0
:101FB0000703000000000000000000000060F0F0D7
:101FC000F0600000000000000000000000000000C1
:101FD000000000000000000000002018C744444436
:101FE00044FC44444444040000040404070404047E
:101FF00004FF04040404040400000000FE22222262
:102000002222222222FE0000008040300F02020223
:1020100002020242827F000000000000FE828282F3
:1020200082828282FE00000000000000FF404040EB
:1020300040404040FF00000000000000BE2A2A2A65
:10204000EA2A2A2A3E000000000044424949494940
:102050007F494949494140000020202020FF20209D
:1020600020202020FF2020200000000000FF404012
:1020700040404040FF000000000004FF242424FFF3
:102080000400FE222222FE000088482F090919AF11
:1020900048300F0242827F00B8200000000000207C
:1020A0000C000000060E0000C42000000C00002000
:1020B00094030000160E0000000000000000000065
:0420C000006CDC02D2
:04000005000000C136
:00000001FF
